:020000040800F2
:10000000000500209D0100087B1800083F1700082C
:100010007918000895030008DD20000800000000A2
:10002000000000000000000000000000C11B0008EC
:1000300097030008000000009D180008C31B00087B
:10004000B7010008B7010008B7010008B7010008B0
:10005000B7010008B701000899030008A7030008CA
:10006000AD030008B3030008B7010008B70100089A
:10007000B7010008B7010008B7010008B701000880
:10008000B7010008B7010008B7010008B701000870
:10009000B7010008B7010008B7010008B90300085C
:1000A000B7010008B7010008B7010008B701000850
:1000B000B7010008991C0008B7010008B701000843
:1000C000B7010008B7010008B7010008B701000830
:1000D000B7010008B7010008B7010008B701000820
:1000E0009F030008B7010008B7010008B701000826
:1000F000B7010008B7010008B7010008B701000800
:10010000B7010008B7010008B7010008B7010008EF
:10011000B7010008B7010008B7010008B7010008DF
:10012000B7010008B7010008B7010008B7010008CF
:10013000B7010008B7010008B7010008B7010008BF
:10014000B7010008B7010008B7010008B7010008AF
:10015000B7010008B7010008B7010008B70100089F
:10016000B7010008B7010008B7010008B70100088F
:10017000B7010008B7010008B7010008000000003F
:10018000B7010008B7010008DFF80CD000F02AF82A
:10019000004800473D210008000500200648804730
:1001A00006480047FEE7FEE7FEE7FEE7FEE7FEE75C
:1001B000FEE7FEE7FEE7FEE7551C000889010008A0
:1001C000D2B201E000F8012B491EFBD27047002299
:1001D000F6E710B513460A4604461946FFF7F0FF46
:1001E000204610BD064C074D06E0E06840F00103D4
:1001F00094E8070098471034AC42F6D3FFF7C8FFE5
:1002000060230008802300082DE9F04F002487B008
:100210000646254DDFF894A003274FF00209DFF8CA
:10022000908012E08CB1032C0FD0012C0DD0022C49
:100230000BD0042C09D000BF38F81400CDE9029788
:1002400000905EB1012E11D025E0E86C40F0010075
:10025000E864E86C00F001000590EDE700200190F3
:100260005AF82400694600F0E1F814E011480190C2
:100270005AF82400694600F0D9F8DFF834B00022BB
:10028000ABF1060B0F211BF9040000F0E1FA1BF99A
:10029000040000F0D1FA641CE4B2052CC2D307B00C
:1002A000002000F009B80000001002403C000020CF
:1002B000162300080000211030BCBDE8C08F0000EC
:1002C000114810B50F49016000214FF47012C0E9C8
:1002D00001120C22C2604FF4A05340228361C0E996
:1002E0000421C0E9071212024162C0E90A12016347
:1002F00001F026FA044800F0F5F9BDE81040024884
:1003000000F0B0B900240040B000002030B5040077
:10031000174887B002D0012C08D00FE0C16C41F023
:100320000201C164C06C00F0020006E0C16C41F043
:100330001001C164C06C00F0100005900D480E4D16
:10034000694630F8140000900120019000200290CE
:100350000320039055F8240000F068F8009800226C
:1003600081B255F8240000F04AF907B030BD000012
:10037000001002400C230008340000200349044A06
:1003800031F8101052F8200000F035B90C230008A5
:1003900034000020FEE77047012000F03BB84FF426
:1003A000804000F037B8022000F034B8042000F09C
:1003B00031B8082000F02EB8202000F02BB870B51E
:1003C000044600F021F90546601C00D0641C00F0D2
:1003D0001BF9401BA042FAD370BD000001220C495A
:1003E000042810D005DC01280BD0022800D1CA60F7
:1003F0007047082809D02028FAD14FF0FF308861D3
:100400007047CA6170470A6170474A6170470000CF
:1004100000000020044910B50A68024202D00860BA
:10042000FFF7DCFF10BD0000140401402DE9F84F78
:10043000DFF898B100234FF0010C4FF0030A4FF0A2
:100440000F090BF1040EB9E00CFA03F4224070D04E
:100450004D68022D01D0122D0ED1DD0800EB85086C
:10046000D8F820505E07F70E09FA07F6B5430E6973
:10047000BE402E43C8F8206007685E0091F80480F3
:100480000AFA06F508F00308AF4308FA06F848EA46
:100490000708C0F800804F68012F05D0022F03D055
:1004A000112F01D0122F13D1D0F80880CF6828EA7D
:1004B0000508B74047EA08078760D0F804800F793D
:1004C00028EA0408C7F300179F4047EA0807476077
:1004D000D1F804806FEA0807BF0706D1C76AA743AF
:1004E000C8F3C0049C403C43C462C468AC438D68FC
:1004F000B5402543C5604C68E4005ED5344C256E9C
:1005000045F001052566246E23F0030504F001047F
:100510000094304C2E19B4689D072F0F09FA07F587
:10052000AC43B0F1904F05D02B4DA84204D101252A
:100530001CE042E0002519E0284DA84201D1022527
:1005400014E0274DA84201D103250FE0254DA84214
:1005500001D104250AE0244DA84201D1052505E07A
:10056000224DA84201D1062500E00725BD402543C4
:10057000B560DBF800405D464E689443F60300D555
:1005800014432C60DEF8004075464E689443B60371
:1005900000D514432C600D4D08352C684E689443EB
:1005A000F60200D514432C60084D0C352C684E68BB
:1005B0009443B60200D514432C605B1C0A6832FADF
:1005C00003F57FF441AF00F013B8000000040140D0
:1005D00000100240000001400004004800080048EC
:1005E000000C0048001000480014004800180048A3
:1005F00018BCBDE8E08F42694A40426170470AB1C9
:10060000816170478162704701480068704700004F
:100610005000002002480168491C0160704700003A
:100620005000002010B5032000F032F90F2000F038
:1006300005F800F000F9002010BD000010B50446D8
:1006400007484FF47A710068B0FBF1F000F0C2FE89
:1006500000222146501E00F0FBF8002010BD0000D3
:10066000540000202DE9F041044690F8350001289F
:1006700006D094F83500022802D00120BDE8F081B0
:1006800094F8340001280CD0012084F834000227AB
:1006900084F83570FFF7B8FF06464FF47A780025E6
:1006A0000CE00220EAE700BFFFF7AEFF801B4045E9
:1006B00004D9A76384F834500320DFE720688068FA
:1006C000C0434007F0D500205FF01401226801EB21
:1006D0008003D550401C0F28F8D9204600F081F83F
:1006E0000020CBE72DE9F04104004FF0000504D0D5
:1006F00094F83500002618B107E00120BDE8F0812C
:1007000084F83460204600F06BF8022084F835004D
:100710002068016821F0010101601420216800EBCC
:1007200085028E506D1C0F2DF8D92068816841F02C
:1007300004018160D4E901010843D4E90A1211439C
:100740000843E1690843216A0843A1690843616AD3
:10075000084321684A68214B1A40104348602046EC
:1007600001F072F8D4E903100143226B6069104371
:1007700001432068026822F0FE02114301602068F4
:10078000016841F001010160FFF73EFF05464FF4AB
:100790007A7706E0FFF738FF401BB84201D90820FE
:1007A0000EE020688068C043C007F3D1FFF72CFF3C
:1007B000054608E0FFF728FF401BB84203D9102088
:1007C000A06303209AE720688068C043C006F1D484
:1007D000A663012084F8350000208FE70E0000FC9E
:1007E00070472DE9F041044608202168C860206860
:1007F000816841F004018160FFF706FF054600268D
:100800004FF47A770BE0FFF7FFFE401BB84206D9A2
:100810000420A06384F834600320BDE8F0812068E0
:100820008068C0430007EED4012084F8350084F8C6
:1008300034600020F1E7704700F01F020121914071
:100840004009800000F1E020C0F80011704700006E
:10085000F0B40E4B1B680C46C3F30223C3F107052B
:10086000042D00D90425191D072901D2002300E019
:10087000DB1E012606FA05F1491E214099409E40E3
:10088000761E16403143F0BC00F0F8BF0CED00E0DE
:10089000064900F0070208684FF6FF03184040EAD7
:1008A0000220034A10430860704700000CED00E08E
:1008B0000000FA051549B0F5007F0868C0F3412033
:1008C00009D0022805D0086820F4C06040F4806098
:1008D0000860002070470128FBD0086820F4C06041
:1008E00040F4007008600A480A4A0068B0FBF2F061
:1008F0003222504300E0401E10B14A695205FAD43A
:1009000048694005E5D503207047000000700040AD
:100910005400002040420F000248006800F4C0600C
:1009200070470000007000402DE9F84F0446002792
:100930000088E54D3E46010504F1200B1DD5606E93
:1009400078B1B0F5800F11D0B0F5000F04D0B0F53C
:10095000400F22D001270FE0E86840F48030E860C3
:100960001BE00021201D00F09BFF03E00021584602
:1009700001F04AF8070010D03E462088C00426D572
:10098000A06EC0B1B0F1807F1AD0B0F1007F0DD061
:10099000B0F1407F19D0012718E0D5F88800616ECA
:1009A00020F440000843C5F88800E6E7E86840F412
:1009B0008030E86009E00021201D00F071FF03E0B5
:1009C0000021584601F020F80746F7B13E4620685E
:1009D00080033AD5A86D4FF00008C00009D4A86D77
:1009E00040F08050A865A86D4FF0010800F08050DD
:1009F0000090DFF8D8A2DAF8001041F48071CAF84C
:100A00000010FFF701FE814610E0D5F88800A16EC6
:100A100020F040700843C5F88800D8E7FFF7F4FDE0
:100A2000A0EB0900022801D9032705E0DAF800004D
:100A3000C005F3D5002F7CD04FEA0706B8F1000FB0
:100A400003D0A86D20F08050A8652078C00707D09B
:100A5000D5F88800A16B20F003000843C5F8880092
:100A60002078800707D5D5F88800E16B20F00C00CE
:100A70000843C5F888002078400707D5D5F88800D6
:100A8000216C20F030000843C5F88800207800076A
:100A900007D5D5F88800616C20F0C0000843C5F880
:100AA00088002078C00607D5D5F88800A16C20F40E
:100AB00040700843C5F888002078800607D5D5F82F
:100AC0008800E16C20F440600843C5F88800208865
:100AD000800507D5D5F88800E16D20F44020084353
:100AE000C5F888002088400507D5D5F88800216E14
:100AF00020F440100843C5F888002078400607D548
:100B0000D5F88800216D20F440500843C5F88800CE
:100B10002078000607D5D5F88800616D20F44040A4
:100B20000843C5F888002088C00509D5D5F8880095
:100B300000E01CE0A16D20F440300843C5F88800B7
:100B400020884FF0006780044FF080684FD5D5F8BB
:100B50008800E16E20F040600843C5F88800E06E30
:100B6000B8423CD1E86840F48010E8603FE0D5F836
:100B7000900010F4407015D0D4F88410814211D048
:100B8000D5F89000D5F8901020F4407041F48031F1
:100B9000C5F89010D5F8901021F48031C5F8901068
:100BA000C5F89000C00710D0FFF72EFD074641F2B0
:100BB000883906E0FFF728FDC11B494501D9032606
:100BC0003CE7D5F890008007F4D5D5F89000D4F82C
:100BD000841020F440700843C5F890002EE740458B
:100BE00005D10121201D00F05BFE00B10646206802
:100BF000000317D5D5F88800216F20F04060084326
:100C0000C5F88800206FB84204D1E86840F480102D
:100C1000E86007E0404505D10121201D00F040FEBD
:100C200000B106462068400317D5D5F88800616FEB
:100C300020F040600843C5F88800606FB84204D1D6
:100C4000E86840F48010E86007E0404505D10121E4
:100C5000201D00F025FE00B10646208840041AD56C
:100C6000D5F88800A16F20F040500843C5F88800EF
:100C7000A06FB0F1805F03D0B0F1005F05D00AE053
:100C80000221201D00F00CFE03E00221584600F076
:100C9000BBFE00B106462088000407D5D5F88800C1
:100CA000E16F20F080400843C5F888002068C00349
:100CB00007D555F8880FD4F8801020F0004008437D
:100CC0002860304600F004B8001002400070004078
:100CD00018BCBDE8E08F00002DE9F047DFF868811F
:100CE00005460E46D8F8000000F00700B0420CD2CE
:100CF000D8F8001021F007013143C8F80010D8F8E7
:100D0000000000F00700B04274D128784F4C8007F3
:100D100005D5A068A96820F0F0000843A0602878F5
:100D2000C00756D06868022818D0032819D0216857
:100D3000D0B1490500295DDAA16821F00301014322
:100D4000A160FFF761FC6968074641F2883002291B
:100D500012D003291ED0814649B335E021688903AA
:100D6000E8E721688901E5E78907E3E7FFF74CFC3D
:100D7000C11B494501D924E08146A068C0F3810028
:100D80000228F3D125E000BFFFF73EFCC11B494517
:100D900001D916E08146A068C0F381000328F3D191
:100DA00017E000BFFFF730FCC11B494509D8A06818
:100DB00010F00C0FF6D10CE0FFF726FCC11B4945E3
:100DC00002D90320BDE8F087A068C0F381000128A4
:100DD000F2D1D8F80010404601F00701B1420BD91A
:100DE000016821F0070131430160006800F007004D
:100DF000B04201D00120E5E72878400705D5A0687A
:100E0000E96820F4E0600843A0602878000706D570
:100E1000A068296920F4605040EAC100A06000F099
:100E20001BF8A168F02292FAA2F201F0F001B2FAE6
:100E300082F2D140064A515CC840064908600F2042
:100E4000FFF7FCFB0020BDE700200240001002403D
:100E5000202300085400002070B53B4900231846A9
:100E60008A683A4C12F00C0F4FEA640514D08A6875
:100E7000C2F38102032A04D1CA6802F00302012AE4
:100E80000AD08A68C2F38102012A21D08A68C2F39B
:100E90008102022A1ED01EE00A68120706D4D1F889
:100EA00094204FF4706302F4706203E00A68F02348
:100EB00002F0F00293FAA3F3B3FA83F3DA40244B7F
:100EC00053F822308A6812F00C0F04D1184602E061
:100ED000204600E028468A68C2F38102032A31D105
:100EE000C868CA6800F00300702696FAA6F602F0F9
:100EF0007002B6FA86F6F240521C4FF4FE46022803
:100F000004D0032805D0B3FBF2F004E0B4FBF2F008
:100F100001E0B5FBF2F0CA6896FAA6F302F4FE42CD
:100F2000B3FA83F3DA40C96850434FF0C06292FAD3
:100F3000A2F201F0C061B2FA82F2D140491C49002C
:100F4000B0FBF1F070BD0000001002400024F4007E
:100F5000302300082DE9F84304460078FE4DC00612
:100F600063D5A86810F00C0F0AD0A0690028286883
:100F700078D040F001002860FFF746FB06465AE0B3
:100F80002868800702D5A06900286AD0216A2868ED
:100F90004FF0F006000703D5286800F0F00003E0EA
:100FA000D5F8940006EA1010814216D9084600F0E0
:100FB000C9FD002855D1286840F00800286028683D
:100FC000216A20F0F000084328606868E16920F495
:100FD0007F4040EA0120686015E0286840F0080082
:100FE00028602868216A20F0F000084328606868BB
:100FF000E16920F47F4040EA01206860206A00F047
:10100000A1FD0028D6D1FFF727FFA96896FAA6F21E
:1010100001F0F001B2FA82F2D140D04A515CC840EE
:10102000CF4908600F20FFF709FB2BE0FFF7ECFA30
:10103000801B02287ED828688007F7D5286840F0F2
:10104000080028602868216A20F0F0000843286022
:101050006868E16920F47F4040EA0120686011E09F
:1010600000E0B7E020F001002860FFF7CDFA064667
:1010700005E000BFFFF7C8FA801B0228DAD828680D
:101080008007F7D42078C00748D0A868C0F3810053
:1010900002281DD0A868C0F38100032803D1E868A6
:1010A000C043800714D06068B0F5803F17D0B0F51A
:1010B000A02F286817D020F480302860286820F4FA
:1010C000802028606068E0B1FFF79EFA064614E0D1
:1010D0002868800322D5606800287BD01EE028683D
:1010E00040F48030EDE740F480202860F7E700BF4F
:1010F000FFF78AFA801B64289CD828688003F7D5FC
:101100000CE0FFF781FA064605E000BFFFF77CFA26
:10111000801B64288ED828688003F7D42078800745
:1011200048D5A8684FF0F857C0F38100012816D0C1
:10113000A86800E0AFE0C0F38100032804D1E868AC
:1011400000F0030002280AD0E0680028286821D0B7
:1011500040F480702860FFF757FA06460BE02868D5
:1011600040050BD5E0680028B7D007E0FFF74CFA40
:10117000801B0228C0D828684005F7D5686897FA10
:10118000A7F22169B2FA82F220F0F85091400843A8
:1011900068600FE020F480702860FFF735FA06469B
:1011A00005E000BFFFF730FA801B022873D82868DB
:1011B0004005F7D42078000729D560690028D5F8C4
:1011C000940013D040F00100C5F89400FFF71CFA1A
:1011D000064606E0FBE000BFFFF716FA801B022878
:1011E00059D8D5F894008007F6D510E020F001001A
:1011F000C5F89400FFF708FA064604E0FFF704FA82
:10120000801B022847D8D5F894008007F6D42078B0
:10121000400763D5A86D0026C00008D4A86D40F033
:101220008050A865A86D012600F0805000904D48C0
:101230000168C90511D40168804641F480710160DC
:10124000FFF7E2F9074604E0FFF7DEF9C01B0228CA
:1012500021D8D8F80000C005F6D5A068012815D01F
:101260000528D5F8900017D020F00100C5F89000AF
:10127000D5F8900020F00400C5F89000A06841F275
:101280008838C8B1FFF7C0F9074610E0D5F89000DC
:1012900040F00100F0E75EE040F00400C5F8900087
:1012A000F4E700BFFFF7B0F9C11B414553D8D5F8AB
:1012B00090008007F6D50CE0FFF7A6F9074604E09A
:1012C000FFF7A2F9C11B414579D8D5F890008007F6
:1012D000F6D41EB1A86D20F08050A865A06AC8B3EE
:1012E000A968C1F38101032972D00228286820F07F
:1012F0008070286011D02868000106D4286880001A
:1013000003D4E86820F00300E860E8681649084064
:10131000E860FFF779F9044654E0FFF775F90646EF
:1013200005E000BFFFF770F9801B022847D8286846
:101330008001F7D4206BE16A000110380843616B2B
:10134000A26B0902120941EA42410843A18F074AF0
:1013500049080DE039E032E0001002402023000887
:101360005400002000700040FFFFEEFE0000E0FF90
:1013700002EB4151084394F840104908120102EB76
:1013800041610843E860286840F080702860E868A0
:1013900040F08070E860FFF737F9044605E000BFD1
:1013A000FFF732F9001B022809D828688001F7D519
:1013B0000BE000BFFFF728F9001B022802D9032029
:1013C000BDE8F88328688001F4D40020F8E7FFE73F
:1013D0000120F5E710B5401EB0F1807F01D3012058
:1013E00010BD4FF0E02460610F21601700F046FA55
:1013F0000020A06107202061002010BD70477047C9
:1014000010B5040003D094F8390010B107E00120B2
:1014100010BD002084F83800204600F00DF80220AE
:1014200084F83900211D206800F03CFC012084F87C
:101430003900002010BD0000094808B5816D41F059
:1014400002018165806D002200F002000090012100
:101450001D20FFF7FDF9BDE808401D20FFF7ECB99E
:10146000001002400168CA6842F00102CA600068C8
:10147000016841F00101016000207047704770B5BC
:101480000446006801694FF00005C943890715D477
:10149000C168C943890711D4E91E01610120207682
:1014A000206880698007204602D0FFF7E7FF04E04C
:1014B00000F0D1F8204600F02FF925762068016968
:1014C000C943490717D4C168C943490713D46FF00A
:1014D00004010161022020762068806910F4407FB9
:1014E000204602D0FFF7CAFF04E000F0B4F820461F
:1014F00000F012F9257620680169C943090716D45E
:10150000C168C943090712D46FF0080101610420C2
:1015100020762068C0698007204602D0FFF7AEFF22
:1015200004E000F098F8204600F0F6F825762068F0
:101530000169C943C90617D4C168C943C90613D490
:101540006FF010010161082020762068C06910F456
:10155000407F204602D0FFF791FF04E000F07BF8C7
:10156000204600F0D9F8257620680169C943C907EB
:1015700008D1C168C943C90704D1891E0161204649
:1015800000F0CCF820680169C943090609D4C16894
:10159000C943090605D46FF0800101612046FFF7B9
:1015A0002DFF20680169C943490609D4C168C943B0
:1015B000490605D46FF040010161204600F0BEF8F5
:1015C00020680169C94389060BD4C168C9438906EB
:1015D00007D46FF0200101612046BDE87040FFF79D
:1015E0000EBF70BD70B5044690F8380001280ED0CB
:1015F000012584F83850022084F839000C2A19D0CB
:1016000007DC5AB1042A0DD0082A1ED10EE00220B0
:1016100070BD102A12D0142A17D113E0206800F0F0
:10162000A9FB12E0206800F0F3FB0EE0206800F058
:1016300037FC0AE0206800F07BFC06E0206800F040
:10164000B1FC02E0206800F0E5FC84F8395000208D
:1016500084F8380070BD704710B5040003D094F8CA
:10166000390010B107E0012010BD002084F83800D7
:10167000204600F00CF8022084F83900211D206873
:1016800000F010FB012084F83900002010BD7047E5
:1016900010B50268044631B1042908D0082929D0C0
:1016A0000C2908D12AE0D06840F0020002E0D0689E
:1016B00040F00400D0600122206800F04FFB114888
:1016C000216881420BD01048814208D00F488142E6
:1016D00005D00F48814202D00E48814203D1486CA8
:1016E00040F4004048642068016841F00101016055
:1016F000002010BDD06840F00800DBE7D06840F063
:101700001000D7E7002C01400034014000400140A8
:10171000004401400048014070470000006805494E
:10172000884205D10449012088620020FEF726BEC8
:101730007047000000040040000000207047FEE7F2
:1017400030B5B9B0142122A8FEF741FD442127A8E5
:10175000FEF73DFD88216846FEF739FD364CA06D49
:1017600040F08050A065A06D002500F080503890BA
:101770000420319527900120299027A8FFF7EAFB44
:1017800000B1FEE74FF4003000904012219068460F
:10179000FFF7CAF8E06C40F00100E064E06C00F094
:1017A00001003890E06C40F00200E064E06C00F072
:1017B00002003890E06C40F00400E064E06C00F05F
:1017C00004003890E06C40F00800E064E06C22A96E
:1017D00000F00800389048F2C07022900220CDE955
:1017E0002305032025900B2026904FF09040FEF714
:1017F0001DFE4FF23320229022A91048FEF716FE5C
:101800004FF4FC70229022A90D48FEF70FFE4FF412
:101810007F40229022A90B48FEF708FE0220FEF727
:10182000CEFDA06D40F40070A065A06D00F40070C6
:10183000389039B030BD000000100240000400486C
:1018400000080048000C004870B50446FEF7DCFEB6
:1018500005464FF47A7608E0FEF7D6FE401BB0420C
:1018600003D90120A063032070BD20688068C043B5
:101870008006F1D4002070BDFEE770470907090E0D
:10188000002806DA00F00F0000F1E02080F8141DB7
:10189000704700F1E02080F80014704770470000A6
:1018A0002DE9F041544C05460F46E06800268207BA
:1018B00028684FF0700112D0E26802F00302824201
:1018C0001BD1D0B1E06891FAA1F100F07000B1FA3B
:1018D00081F1C8406968401C88420ED122E001288D
:1018E00004D0022805D0032807D108E02268920717
:1018F00001E022685205002A07DB012678E0226811
:10190000920302D422685203F5E7E26891FAA1F14A
:1019100022F073036A68B1FA81F1521E8A401343C0
:101920000343E360206820F080602060FEF76CFED7
:10193000804605E0FEF768FEA0EB080002284ED8BE
:1019400020680001F6D44FF4FE4017B390FAA0F0DF
:10195000A968012FB0FA80F04FF0FF3201FA00F1D0
:101960002AD0686902EB50004FF0C06292FAA2F2EE
:10197000B2FA82F2904001432069204A10400143AC
:101980002161206840F080602060FEF73DFE074640
:1019900027E090FAA0F0A968B0FA80F08140E868EA
:1019A0004FF4003292FAA2F20009B2FA82F29040A9
:1019B00001432069124AE1E7286902EB50004FF425
:1019C000C00292FAA2F2B2FA82F290400143206978
:1019D0000C4AD3E7FEF718FEC01B022801D90326E4
:1019E00006E020680001F5D52069A9690843206157
:1019F0003046BDE8F081000000100240FF80FFF992
:101A0000FF80FDFFFF809FFF2DE9F0414A4C064615
:101A10008846E0680025810730684FF0700312D0D7
:101A2000E16801F0030181421BD1D0B1E06893FA73
:101A3000A3F100F07000B1FA81F1C8407168401C58
:101A400088420ED122E0012804D0022805D00328C4
:101A500007D108E02168890701E0216849050029CC
:101A600007DB012564E02168890302D4216849036A
:101A7000F5E7E16893FAA3F321F073027168B3FA12
:101A800083F3491E99400A430243E260206820F034
:101A900080502060FEF7B8FD074604E0FEF7B4FD75
:101AA000C01B02283BD820688000F7D44FF4FE41C9
:101AB00091FAA1F1B068B8F1000FB1FA81F100FA22
:101AC00001F019D031694FF0FF3202EB51014FF0B4
:101AD000C06292FAA2F2B2FA82F2914008436169BE
:101AE000164A114008436061206840F08050206031
:101AF000FEF78AFD074614E0F1684FF4003292FACF
:101B0000A2F20909B2FA82F29140084361690C4AD3
:101B1000E7E700BFFEF778FDC01B022801D90325C7
:101B200006E020688000F5D560697169084360614E
:101B30002846BDE8F081000000100240FF80FFF958
:101B4000FF80FDFFF8B51C4D06460024A86DC000BF
:101B500002D5FEF7E1FE0DE0A86D40F08050A865CB
:101B6000A86D00F080500090FEF7D6FEA96D21F020
:101B70008051A965B0F5007F04D0802E07D94FF0C1
:101B800003040AE0802E08D9A02E01D804E001D178
:101B9000022402E0702E00D101240848016821F0DF
:101BA000070121430160006800F00700A04201D056
:101BB0000120F8BD0020F8BD0010024000200240C6
:101BC0007047FEF727BD000010B598B0142111A88A
:101BD000FEF7FDFA44216846FEF7F9FA102000905E
:101BE0000120602100240690CDE907410221CDE9C2
:101BF0000A100C9028200D9007200E900420CDE9AB
:101C00000F016846FFF7A6F900B1FEE70F2011901B
:101C10000320CDE912041494042111A81594FFF7B0
:101C20005BF800B1FEE70A4CA06D40F08050A06563
:101C3000A06D00F0805016902015FEF73BFE00B11D
:101C4000FEE7A06D20F08050A06518B010BD000028
:101C5000001002400D48016841F4700101600C4819
:101C6000016841F001010160002181600268094BB7
:101C70001A4002608214C260026822F4802202606C
:101C800081610249C00380390860704788ED00E037
:101C900000100240FFFFF6EA0148FFF7F0BB00002A
:101CA000580000202DE9F0470268244B244D254EB2
:101CB000254F264C4FF0804A984209D0504507D016
:101CC000A84205D0B04203D0B84201D0A04204D10E
:101CD00022F0700C4A6842EA0C02DFF874C0DFF8A8
:101CE0007480DFF8749098420FD050450DD0A84210
:101CF0000BD0B04209D0B84207D0A04205D0604511
:101D000003D0404501D0484503D122F44075CA684C
:101D10002A4302608A68C2620A688262984207D0D7
:101D2000A04205D0604503D0404501D0484501D1CF
:101D30000969016301214161BDE8F087002C014080
:101D40000004004000080040000C00400034014046
:101D500000400140004401400048014010B501230B
:101D6000046A8B409C430462036A8A401343036203
:101D700010BD00002DE9F043026A22F00102026268
:101D8000056A436882691C4C25F0020522400C68F4
:101D900022F0030214438A68194E2A43174D194F43
:101DA000DFF864C0DFF86490A84207D0B04205D0E5
:101DB000B84203D0604501D0484506D122F008085A
:101DC000CA6842EA080222F00402A84207D0B042E0
:101DD00005D0B84203D0604501D0484505D14D69D2
:101DE00023F440731D438B692B434360846149682E
:101DF00041630262BDE8F0838FFFFEFF002C0140CB
:101E000000340140004001400044014000480140CE
:101E1000F0B5026A22F010020262056A4268836924
:101E2000194C1B4E23400C6823F4407343EA0424EE
:101E300025F020038D6843EA0513144DA84201D014
:101E4000B04206D1CF6823F0800343EA071323F0A2
:101E50004003A8420AD0B04208D00E4DA84205D097
:101E60000D4DA84202D00D4DA84207D14D6922F474
:101E7000406242EA85028D6942EA850242608461DD
:101E8000496881630362F0BDFF8FFFFE002C0140B3
:101E9000003401400040014000440140004801403E
:101EA000F0B5026A22F480720262056A4368C26970
:101EB000194C1B4E22400C6822F00302144325F4F7
:101EC00000728D6842EA0522144DA84201D0B0424A
:101ED00006D1CF6822F4006242EA072222F480622F
:101EE000A8420AD0B04208D00E4DA84205D00E4DEF
:101EF000A84202D00D4DA84207D14D6923F44053AA
:101F000043EA05138D6943EA05134360C4614968D8
:101F1000C1630262F0BD00008FFFFEFF002C014094
:101F200000340140004001400044014000480140AD
:101F300030B5026A22F480520262046A4268C369C0
:101F4000124D24F400542B400D6823F4407343EAEF
:101F500005238D6844EA05340D4DA8420BD00D4D84
:101F6000A84208D00C4DA84205D00C4DA84202D082
:101F70000B4DA84204D14D6922F4804242EA8512F9
:101F80004260C36149680164046230BDFF8FFFFE97
:101F9000002C014000340140004001400044014059
:101FA0000048014030B5026A22F480320262046ABD
:101FB0004268436D114D2B400D681D4324F40033DE
:101FC0000C8943EA04430E4CA0420BD00D4CA042B6
:101FD00008D00D4CA04205D00C4CA04202D00C4CB5
:101FE000A04204D14C6922F4803242EA04224260C9
:101FF000456549688165036230BD00008FFFFEFFC3
:10200000002C0140003401400040014000440140E8
:102010000048014030B5026A22F480120262046A6C
:102020004268436D114D24F400142B400D6843EABF
:1020300005230D8944EA05540D4DA8420BD00D4DE2
:10204000A84208D00C4DA84205D00C4DA84202D0A1
:102050000B4DA84204D14D6922F4802242EA852228
:10206000426043654968C165046230BDFF8FFFFE71
:10207000002C014000340140004001400044014078
:1020800000480140114810B500684CF25031B0FBD7
:10209000F1F0401E82B20F480D4901600E490968F7
:1020A00019B149F63F4393FBF1F1C1600021016191
:1020B000C0E901210748FFF7A3F900B1FEE7054891
:1020C000FFF7D0F9002800D0FEE710BD5400002033
:1020D000000400405800002000000020FEE702E05D
:1020E00008C8121F08C1002AFAD1704770470020A3
:1020F00001E001C1121F002AFBD170472DE9F04118
:102100000C4D0D4F0024286A05F12C06C5F824005B
:1021100036F8141000223846FEF771FA641C042CBD
:10212000F6DB286A012236F810103846BDE8F04187
:10213000FEF765BA000000200010004886B0FEF7E8
:1021400071FAFFF741FD0020FEF778FA0020FEF754
:10215000DDF80120FEF7DAF8FEF7B2F80120FEF70D
:1021600053F8FFF78FFF4748002541F28831C0E957
:10217000005185603C38FFF76FFA42490022A1F117
:102180003C00FFF72FFA3F4800213C38FFF780FA68
:1021900001260220CDE90160C0023B4F0090694654
:1021A00003963846FEF742F97003009069463846B8
:1021B000FEF73CF9B003009069463846FEF736F961
:1021C000F003009069463846FEF730F92F4C00BF07
:1021D000D4E9051051EA00020FD0226811440844E6
:1021E0000A2190FBF1F201FB12002060002800DAC6
:1021F00025606561A561FFF745FF2069012803D1CE
:102200006660256100F068F8E068012803D1E560A8
:10221000656000F061F8E06901280AD1E561A06815
:10222000401C00EBD07121F00101401AA060FFF7C3
:1022300065FFA06A0128CBD1A562A068012802D061
:1022400000F026F8C4E7DFF84480216A08F12C0882
:10225000002238F811103846FEF7D1F9206A012221
:10226000401CC11700EB917121F00301401A20625C
:1022700038F810103846FEF7C2F90120FEF77EF854
:10228000A6E7000094000020001000480000002095
:1022900010B50F4C0F4804F12C02D4E908139942F1
:1022A00007D032F811100022FEF7A9F9606A206207
:1022B00010BD491CCB1701EB937323F00303C91A1C
:1022C000616232F81110BDE810400122FEF797B9A3
:1022D000000000200010004870B5FFF70FFF0A480B
:1022E0004FF48053590045682C304A008C00012D72
:1022F00004D0048042808180C38070BD038041800F
:102300008280C48070BD0000000000200400000135
:102310000607081709000100020004002000080059
:102320000000000000000000010203040607080985
:10233000A0860100400D0300801A060000350C0045
:1023400040420F0080841E0000093D0000127A0008
:102350000024F40000366E010048E801006CDC0245
:10236000802300080000002058000000DE20000844
:10237000D823000858000020A8040000EE20000820
:102380000500000000000000010000000000000047
:10239000000000000000000000000000000000003D
:1023A00000000000000000000000000000100020FD
:1023B0000040008000040048001000480000004871
:1023C00000000048000000480000004800000048ED
:0823D0000000000000093D00BF
:040000050800019D51
:00000001FF
